{
  "contractName": "DataModel",
  "abi": [
    {
      "constant": true,
      "inputs": [
        {
          "name": "",
          "type": "uint32"
        }
      ],
      "name": "houses",
      "outputs": [
        {
          "name": "houseNumber",
          "type": "string"
        },
        {
          "name": "houseAddress",
          "type": "string"
        },
        {
          "name": "ownerAddress",
          "type": "address"
        },
        {
          "name": "tenantId",
          "type": "uint32"
        },
        {
          "name": "rent",
          "type": "uint32"
        },
        {
          "name": "tenancy",
          "type": "uint32"
        },
        {
          "name": "startDate",
          "type": "uint32"
        },
        {
          "name": "nextPaymentDate",
          "type": "uint32"
        }
      ],
      "payable": false,
      "stateMutability": "view",
      "type": "function"
    },
    {
      "constant": true,
      "inputs": [
        {
          "name": "",
          "type": "uint32"
        }
      ],
      "name": "owners",
      "outputs": [
        {
          "name": "ownerName",
          "type": "string"
        },
        {
          "name": "phoneNumber",
          "type": "string"
        },
        {
          "name": "ownerAddress",
          "type": "address"
        }
      ],
      "payable": false,
      "stateMutability": "view",
      "type": "function"
    },
    {
      "constant": true,
      "inputs": [
        {
          "name": "",
          "type": "uint32"
        }
      ],
      "name": "tenants",
      "outputs": [
        {
          "name": "tenantName",
          "type": "string"
        },
        {
          "name": "bcId",
          "type": "string"
        },
        {
          "name": "phoneNumber",
          "type": "string"
        },
        {
          "name": "tenantAddress",
          "type": "address"
        }
      ],
      "payable": false,
      "stateMutability": "view",
      "type": "function"
    },
    {
      "constant": true,
      "inputs": [
        {
          "name": "",
          "type": "uint32"
        },
        {
          "name": "",
          "type": "uint256"
        }
      ],
      "name": "trackOwnedHouses",
      "outputs": [
        {
          "name": "",
          "type": "uint32"
        }
      ],
      "payable": false,
      "stateMutability": "view",
      "type": "function"
    },
    {
      "constant": true,
      "inputs": [
        {
          "name": "",
          "type": "uint32"
        },
        {
          "name": "",
          "type": "uint256"
        }
      ],
      "name": "trackHouseOwners",
      "outputs": [
        {
          "name": "",
          "type": "uint32"
        }
      ],
      "payable": false,
      "stateMutability": "view",
      "type": "function"
    },
    {
      "constant": true,
      "inputs": [],
      "name": "owner_id",
      "outputs": [
        {
          "name": "",
          "type": "uint32"
        }
      ],
      "payable": false,
      "stateMutability": "view",
      "type": "function"
    },
    {
      "constant": true,
      "inputs": [],
      "name": "house_id",
      "outputs": [
        {
          "name": "",
          "type": "uint32"
        }
      ],
      "payable": false,
      "stateMutability": "view",
      "type": "function"
    },
    {
      "constant": true,
      "inputs": [],
      "name": "tenant_id",
      "outputs": [
        {
          "name": "",
          "type": "uint32"
        }
      ],
      "payable": false,
      "stateMutability": "view",
      "type": "function"
    },
    {
      "constant": true,
      "inputs": [
        {
          "name": "",
          "type": "uint32"
        },
        {
          "name": "",
          "type": "uint256"
        }
      ],
      "name": "trackHouseTenants",
      "outputs": [
        {
          "name": "",
          "type": "uint32"
        }
      ],
      "payable": false,
      "stateMutability": "view",
      "type": "function"
    }
  ],
  "bytecode": "0x608060405260016000806101000a81548163ffffffff021916908363ffffffff16021790555060008060046101000a81548163ffffffff021916908363ffffffff16021790555060008060086101000a81548163ffffffff021916908363ffffffff160217905550336000600c6101000a81548173ffffffffffffffffffffffffffffffffffffffff021916908373ffffffffffffffffffffffffffffffffffffffff1602179055503480156100b457600080fd5b50610e13806100c46000396000f3fe608060405260043610610093576000357c010000000000000000000000000000000000000000000000000000000090048063074a084f14610098578063180dc3181461025057806355abebc1146103a95780636127278a1461056e5780638bef0639146105d95780638f5ebf71146106445780639712904a1461067b578063d6741615146106b2578063ee1a5194146106e9575b600080fd5b3480156100a457600080fd5b506100d7600480360360208110156100bb57600080fd5b81019080803563ffffffff169060200190929190505050610754565b6040518080602001806020018973ffffffffffffffffffffffffffffffffffffffff1673ffffffffffffffffffffffffffffffffffffffff1681526020018863ffffffff1663ffffffff1681526020018763ffffffff1663ffffffff1681526020018663ffffffff1663ffffffff1681526020018563ffffffff1663ffffffff1681526020018463ffffffff1663ffffffff16815260200183810383528b818151815260200191508051906020019080838360005b838110156101a757808201518184015260208101905061018c565b50505050905090810190601f1680156101d45780820380516001836020036101000a031916815260200191505b5083810382528a818151815260200191508051906020019080838360005b8381101561020d5780820151818401526020810190506101f2565b50505050905090810190601f16801561023a5780820380516001836020036101000a031916815260200191505b509a505050505050505050505060405180910390f35b34801561025c57600080fd5b5061028f6004803603602081101561027357600080fd5b81019080803563ffffffff16906020019092919050505061093c565b6040518080602001806020018473ffffffffffffffffffffffffffffffffffffffff1673ffffffffffffffffffffffffffffffffffffffff168152602001838103835286818151815260200191508051906020019080838360005b838110156103055780820151818401526020810190506102ea565b50505050905090810190601f1680156103325780820380516001836020036101000a031916815260200191505b50838103825285818151815260200191508051906020019080838360005b8381101561036b578082015181840152602081019050610350565b50505050905090810190601f1680156103985780820380516001836020036101000a031916815260200191505b509550505050505060405180910390f35b3480156103b557600080fd5b506103e8600480360360208110156103cc57600080fd5b81019080803563ffffffff169060200190929190505050610ab6565b604051808060200180602001806020018573ffffffffffffffffffffffffffffffffffffffff1673ffffffffffffffffffffffffffffffffffffffff168152602001848103845288818151815260200191508051906020019080838360005b83811015610462578082015181840152602081019050610447565b50505050905090810190601f16801561048f5780820380516001836020036101000a031916815260200191505b50848103835287818151815260200191508051906020019080838360005b838110156104c85780820151818401526020810190506104ad565b50505050905090810190601f1680156104f55780820380516001836020036101000a031916815260200191505b50848103825286818151815260200191508051906020019080838360005b8381101561052e578082015181840152602081019050610513565b50505050905090810190601f16801561055b5780820380516001836020036101000a031916815260200191505b5097505050505050505060405180910390f35b34801561057a57600080fd5b506105b76004803603604081101561059157600080fd5b81019080803563ffffffff16906020019092919080359060200190929190505050610cce565b604051808263ffffffff1663ffffffff16815260200191505060405180910390f35b3480156105e557600080fd5b50610622600480360360408110156105fc57600080fd5b81019080803563ffffffff16906020019092919080359060200190929190505050610d16565b604051808263ffffffff1663ffffffff16815260200191505060405180910390f35b34801561065057600080fd5b50610659610d5e565b604051808263ffffffff1663ffffffff16815260200191505060405180910390f35b34801561068757600080fd5b50610690610d74565b604051808263ffffffff1663ffffffff16815260200191505060405180910390f35b3480156106be57600080fd5b506106c7610d8a565b604051808263ffffffff1663ffffffff16815260200191505060405180910390f35b3480156106f557600080fd5b506107326004803603604081101561070c57600080fd5b81019080803563ffffffff16906020019092919080359060200190929190505050610d9f565b604051808263ffffffff1663ffffffff16815260200191505060405180910390f35b6001602052806000526040600020600091509050806000018054600181600116156101000203166002900480601f0160208091040260200160405190810160405280929190818152602001828054600181600116156101000203166002900480156108005780601f106107d557610100808354040283529160200191610800565b820191906000526020600020905b8154815290600101906020018083116107e357829003601f168201915b505050505090806001018054600181600116156101000203166002900480601f01602080910402602001604051908101604052809291908181526020018280546001816001161561010002031660029004801561089e5780601f106108735761010080835404028352916020019161089e565b820191906000526020600020905b81548152906001019060200180831161088157829003601f168201915b5050505050908060020160009054906101000a900473ffffffffffffffffffffffffffffffffffffffff16908060020160149054906101000a900463ffffffff16908060020160189054906101000a900463ffffffff169080600201601c9054906101000a900463ffffffff16908060030160009054906101000a900463ffffffff16908060030160049054906101000a900463ffffffff16905088565b6003602052806000526040600020600091509050806000018054600181600116156101000203166002900480601f0160208091040260200160405190810160405280929190818152602001828054600181600116156101000203166002900480156109e85780601f106109bd576101008083540402835291602001916109e8565b820191906000526020600020905b8154815290600101906020018083116109cb57829003601f168201915b505050505090806001018054600181600116156101000203166002900480601f016020809104026020016040519081016040528092919081815260200182805460018160011615610100020316600290048015610a865780601f10610a5b57610100808354040283529160200191610a86565b820191906000526020600020905b815481529060010190602001808311610a6957829003601f168201915b5050505050908060020160009054906101000a900473ffffffffffffffffffffffffffffffffffffffff16905083565b6002602052806000526040600020600091509050806000018054600181600116156101000203166002900480601f016020809104026020016040519081016040528092919081815260200182805460018160011615610100020316600290048015610b625780601f10610b3757610100808354040283529160200191610b62565b820191906000526020600020905b815481529060010190602001808311610b4557829003601f168201915b505050505090806001018054600181600116156101000203166002900480601f016020809104026020016040519081016040528092919081815260200182805460018160011615610100020316600290048015610c005780601f10610bd557610100808354040283529160200191610c00565b820191906000526020600020905b815481529060010190602001808311610be357829003601f168201915b505050505090806002018054600181600116156101000203166002900480601f016020809104026020016040519081016040528092919081815260200182805460018160011615610100020316600290048015610c9e5780601f10610c7357610100808354040283529160200191610c9e565b820191906000526020600020905b815481529060010190602001808311610c8157829003601f168201915b5050505050908060030160009054906101000a900473ffffffffffffffffffffffffffffffffffffffff16905084565b600660205281600052604060002081815481101515610ce957fe5b9060005260206000209060089182820401919006600402915091509054906101000a900463ffffffff1681565b600560205281600052604060002081815481101515610d3157fe5b9060005260206000209060089182820401919006600402915091509054906101000a900463ffffffff1681565b600060049054906101000a900463ffffffff1681565b600060089054906101000a900463ffffffff1681565b6000809054906101000a900463ffffffff1681565b600460205281600052604060002081815481101515610dba57fe5b9060005260206000209060089182820401919006600402915091509054906101000a900463ffffffff168156fea165627a7a72305820ac5bea52712c7b9781345016a092486b79572ad47d35b369415aaf91823dcd4a0029",
  "source": "// SPDX-License-Identifier: MIT\r\npragma solidity >=0.4.22 <0.9.0;\r\n\r\ncontract DataModel {\r\n    uint32 public tenant_id = 1;   \r\n    uint32 public owner_id = 0;  \r\n    uint32 public house_id = 0;\r\n    address admin = msg.sender;\r\n\r\n    struct house {\r\n        string houseNumber;\r\n        string houseAddress;\r\n        address ownerAddress;\r\n        uint32 tenantId;\r\n        uint32 rent;\r\n        uint32 tenancy; //in months\r\n        uint32 startDate;\r\n        uint32 nextPaymentDate;\r\n    }\r\n    mapping(uint32 => house) public houses;\r\n\r\n    struct tenant {\r\n        string tenantName;\r\n        string bcId;\r\n        string phoneNumber;\r\n        address tenantAddress;\r\n    }\r\n    mapping(uint32 => tenant) public tenants;\r\n\r\n    struct owner {\r\n        string ownerName;\r\n        string phoneNumber;\r\n        address ownerAddress;\r\n    }\r\n    mapping(uint32 => owner) public owners;\r\n    \r\n    mapping(uint32 => uint32[]) public trackHouseTenants;  \r\n    mapping(uint32 => uint32[]) public trackHouseOwners;\r\n\r\n    mapping(uint32 => uint32[]) public trackOwnedHouses;\r\n}",
  "sourcePath": "D:\\Blockchain\\rentalApp\\contracts\\DataModel.sol",
  "compiler": {
    "name": "solc",
    "version": "0.5.1+commit.c8a2cb62.Emscripten.clang"
  },
  "schemaVersion": "3.4.16",
  "updatedAt": "2024-05-04T15:03:11.499Z",
  "devdoc": {
    "methods": {}
  },
  "userdoc": {
    "methods": {}
  }
}