{
  "contractName": "GetSet",
  "abi": [
    {
      "constant": true,
      "inputs": [
        {
          "name": "",
          "type": "uint32"
        }
      ],
      "name": "houses",
      "outputs": [
        {
          "name": "houseNumber",
          "type": "string"
        },
        {
          "name": "houseAddress",
          "type": "string"
        },
        {
          "name": "ownerAddress",
          "type": "address"
        },
        {
          "name": "tenantId",
          "type": "uint32"
        },
        {
          "name": "rent",
          "type": "uint32"
        },
        {
          "name": "tenancy",
          "type": "uint32"
        },
        {
          "name": "startDate",
          "type": "uint32"
        },
        {
          "name": "nextPaymentDate",
          "type": "uint32"
        }
      ],
      "payable": false,
      "stateMutability": "view",
      "type": "function"
    },
    {
      "constant": true,
      "inputs": [
        {
          "name": "",
          "type": "uint32"
        }
      ],
      "name": "owners",
      "outputs": [
        {
          "name": "ownerName",
          "type": "string"
        },
        {
          "name": "phoneNumber",
          "type": "string"
        },
        {
          "name": "ownerAddress",
          "type": "address"
        }
      ],
      "payable": false,
      "stateMutability": "view",
      "type": "function"
    },
    {
      "constant": true,
      "inputs": [
        {
          "name": "",
          "type": "uint32"
        }
      ],
      "name": "tenants",
      "outputs": [
        {
          "name": "tenantName",
          "type": "string"
        },
        {
          "name": "bcId",
          "type": "string"
        },
        {
          "name": "phoneNumber",
          "type": "string"
        },
        {
          "name": "tenantAddress",
          "type": "address"
        }
      ],
      "payable": false,
      "stateMutability": "view",
      "type": "function"
    },
    {
      "constant": true,
      "inputs": [
        {
          "name": "",
          "type": "uint32"
        },
        {
          "name": "",
          "type": "uint256"
        }
      ],
      "name": "trackOwnedHouses",
      "outputs": [
        {
          "name": "",
          "type": "uint32"
        }
      ],
      "payable": false,
      "stateMutability": "view",
      "type": "function"
    },
    {
      "constant": true,
      "inputs": [
        {
          "name": "",
          "type": "uint32"
        },
        {
          "name": "",
          "type": "uint256"
        }
      ],
      "name": "trackHouseOwners",
      "outputs": [
        {
          "name": "",
          "type": "uint32"
        }
      ],
      "payable": false,
      "stateMutability": "view",
      "type": "function"
    },
    {
      "constant": true,
      "inputs": [],
      "name": "owner_id",
      "outputs": [
        {
          "name": "",
          "type": "uint32"
        }
      ],
      "payable": false,
      "stateMutability": "view",
      "type": "function"
    },
    {
      "constant": true,
      "inputs": [],
      "name": "house_id",
      "outputs": [
        {
          "name": "",
          "type": "uint32"
        }
      ],
      "payable": false,
      "stateMutability": "view",
      "type": "function"
    },
    {
      "constant": true,
      "inputs": [],
      "name": "tenant_id",
      "outputs": [
        {
          "name": "",
          "type": "uint32"
        }
      ],
      "payable": false,
      "stateMutability": "view",
      "type": "function"
    },
    {
      "constant": true,
      "inputs": [
        {
          "name": "",
          "type": "uint32"
        },
        {
          "name": "",
          "type": "uint256"
        }
      ],
      "name": "trackHouseTenants",
      "outputs": [
        {
          "name": "",
          "type": "uint32"
        }
      ],
      "payable": false,
      "stateMutability": "view",
      "type": "function"
    },
    {
      "anonymous": false,
      "inputs": [
        {
          "indexed": false,
          "name": "houseId",
          "type": "uint32"
        }
      ],
      "name": "transferOwner",
      "type": "event"
    },
    {
      "anonymous": false,
      "inputs": [
        {
          "indexed": false,
          "name": "houseId",
          "type": "uint32"
        }
      ],
      "name": "tranferTenant",
      "type": "event"
    },
    {
      "anonymous": false,
      "inputs": [
        {
          "indexed": false,
          "name": "houseId",
          "type": "uint32"
        },
        {
          "indexed": false,
          "name": "rent",
          "type": "uint32"
        }
      ],
      "name": "paymentReceived",
      "type": "event"
    },
    {
      "constant": false,
      "inputs": [
        {
          "name": "_oName",
          "type": "string"
        },
        {
          "name": "_phNum",
          "type": "string"
        },
        {
          "name": "_oAddr",
          "type": "address"
        }
      ],
      "name": "addOwner",
      "outputs": [
        {
          "name": "",
          "type": "uint32"
        }
      ],
      "payable": false,
      "stateMutability": "nonpayable",
      "type": "function"
    },
    {
      "constant": true,
      "inputs": [
        {
          "name": "_OwnerId",
          "type": "uint32"
        }
      ],
      "name": "getOwner",
      "outputs": [
        {
          "name": "",
          "type": "string"
        },
        {
          "name": "",
          "type": "string"
        },
        {
          "name": "",
          "type": "address"
        }
      ],
      "payable": false,
      "stateMutability": "view",
      "type": "function"
    },
    {
      "constant": false,
      "inputs": [
        {
          "name": "_tName",
          "type": "string"
        },
        {
          "name": "_bcId",
          "type": "string"
        },
        {
          "name": "_tphNum",
          "type": "string"
        },
        {
          "name": "_tAddr",
          "type": "address"
        }
      ],
      "name": "addTenant",
      "outputs": [
        {
          "name": "",
          "type": "uint32"
        }
      ],
      "payable": false,
      "stateMutability": "nonpayable",
      "type": "function"
    },
    {
      "constant": true,
      "inputs": [
        {
          "name": "_tenantId",
          "type": "uint32"
        }
      ],
      "name": "getTenant",
      "outputs": [
        {
          "name": "",
          "type": "string"
        },
        {
          "name": "",
          "type": "string"
        },
        {
          "name": "",
          "type": "string"
        },
        {
          "name": "",
          "type": "address"
        }
      ],
      "payable": false,
      "stateMutability": "view",
      "type": "function"
    },
    {
      "constant": false,
      "inputs": [
        {
          "name": "_ownerId",
          "type": "uint32"
        },
        {
          "name": "_tenantId",
          "type": "uint32"
        },
        {
          "name": "_houseNumber",
          "type": "string"
        },
        {
          "name": "_houseAddress",
          "type": "string"
        },
        {
          "name": "_rent",
          "type": "uint32"
        },
        {
          "name": "_tenancy",
          "type": "uint32"
        }
      ],
      "name": "addHouse",
      "outputs": [
        {
          "name": "",
          "type": "uint32"
        }
      ],
      "payable": false,
      "stateMutability": "nonpayable",
      "type": "function"
    },
    {
      "constant": true,
      "inputs": [
        {
          "name": "_houseId",
          "type": "uint32"
        }
      ],
      "name": "getHouse",
      "outputs": [
        {
          "name": "",
          "type": "string"
        },
        {
          "name": "",
          "type": "string"
        },
        {
          "name": "",
          "type": "address"
        },
        {
          "name": "",
          "type": "uint32"
        },
        {
          "name": "",
          "type": "uint32"
        },
        {
          "name": "",
          "type": "uint32"
        },
        {
          "name": "",
          "type": "uint32"
        },
        {
          "name": "",
          "type": "uint32"
        }
      ],
      "payable": false,
      "stateMutability": "view",
      "type": "function"
    }
  ],
  "bytecode": "0x608060405260016000806101000a81548163ffffffff021916908363ffffffff16021790555060008060046101000a81548163ffffffff021916908363ffffffff16021790555060008060086101000a81548163ffffffff021916908363ffffffff160217905550336000600c6101000a81548173ffffffffffffffffffffffffffffffffffffffff021916908373ffffffffffffffffffffffffffffffffffffffff1602179055503480156100b457600080fd5b506127b3806100c46000396000f3fe6080604052600436106100d5576000357c010000000000000000000000000000000000000000000000000000000090048063074a084f146100da578063180dc3181461029257806326cdab0f146103eb57806353e445801461058a57806355abebc11461074f5780636127278a14610914578063621b23e21461097f5780638bef063914610ad85780638f5ebf7114610b435780639712904a14610b7a578063b01a57ff14610bb1578063c5f86d4914610d70578063d674161514610fa6578063ee1a519414610fdd578063f7ddd14d14611048575b600080fd5b3480156100e657600080fd5b50610119600480360360208110156100fd57600080fd5b81019080803563ffffffff169060200190929190505050611200565b6040518080602001806020018973ffffffffffffffffffffffffffffffffffffffff1673ffffffffffffffffffffffffffffffffffffffff1681526020018863ffffffff1663ffffffff1681526020018763ffffffff1663ffffffff1681526020018663ffffffff1663ffffffff1681526020018563ffffffff1663ffffffff1681526020018463ffffffff1663ffffffff16815260200183810383528b818151815260200191508051906020019080838360005b838110156101e95780820151818401526020810190506101ce565b50505050905090810190601f1680156102165780820380516001836020036101000a031916815260200191505b5083810382528a818151815260200191508051906020019080838360005b8381101561024f578082015181840152602081019050610234565b50505050905090810190601f16801561027c5780820380516001836020036101000a031916815260200191505b509a505050505050505050505060405180910390f35b34801561029e57600080fd5b506102d1600480360360208110156102b557600080fd5b81019080803563ffffffff1690602001909291905050506113e8565b6040518080602001806020018473ffffffffffffffffffffffffffffffffffffffff1673ffffffffffffffffffffffffffffffffffffffff168152602001838103835286818151815260200191508051906020019080838360005b8381101561034757808201518184015260208101905061032c565b50505050905090810190601f1680156103745780820380516001836020036101000a031916815260200191505b50838103825285818151815260200191508051906020019080838360005b838110156103ad578082015181840152602081019050610392565b50505050905090810190601f1680156103da5780820380516001836020036101000a031916815260200191505b509550505050505060405180910390f35b3480156103f757600080fd5b506105686004803603606081101561040e57600080fd5b810190808035906020019064010000000081111561042b57600080fd5b82018360208201111561043d57600080fd5b8035906020019184600183028401116401000000008311171561045f57600080fd5b91908080601f016020809104026020016040519081016040528093929190818152602001838380828437600081840152601f19601f820116905080830192505050505050509192919290803590602001906401000000008111156104c257600080fd5b8201836020820111156104d457600080fd5b803590602001918460018302840111640100000000831117156104f657600080fd5b91908080601f016020809104026020016040519081016040528093929190818152602001838380828437600081840152601f19601f820116905080830192505050505050509192919290803573ffffffffffffffffffffffffffffffffffffffff169060200190929190505050611562565b604051808263ffffffff1663ffffffff16815260200191505060405180910390f35b34801561059657600080fd5b506105c9600480360360208110156105ad57600080fd5b81019080803563ffffffff16906020019092919050505061167b565b604051808060200180602001806020018573ffffffffffffffffffffffffffffffffffffffff1673ffffffffffffffffffffffffffffffffffffffff168152602001848103845288818151815260200191508051906020019080838360005b83811015610643578082015181840152602081019050610628565b50505050905090810190601f1680156106705780820380516001836020036101000a031916815260200191505b50848103835287818151815260200191508051906020019080838360005b838110156106a957808201518184015260208101905061068e565b50505050905090810190601f1680156106d65780820380516001836020036101000a031916815260200191505b50848103825286818151815260200191508051906020019080838360005b8381101561070f5780820151818401526020810190506106f4565b50505050905090810190601f16801561073c5780820380516001836020036101000a031916815260200191505b5097505050505050505060405180910390f35b34801561075b57600080fd5b5061078e6004803603602081101561077257600080fd5b81019080803563ffffffff16906020019092919050505061190e565b604051808060200180602001806020018573ffffffffffffffffffffffffffffffffffffffff1673ffffffffffffffffffffffffffffffffffffffff168152602001848103845288818151815260200191508051906020019080838360005b838110156108085780820151818401526020810190506107ed565b50505050905090810190601f1680156108355780820380516001836020036101000a031916815260200191505b50848103835287818151815260200191508051906020019080838360005b8381101561086e578082015181840152602081019050610853565b50505050905090810190601f16801561089b5780820380516001836020036101000a031916815260200191505b50848103825286818151815260200191508051906020019080838360005b838110156108d45780820151818401526020810190506108b9565b50505050905090810190601f1680156109015780820380516001836020036101000a031916815260200191505b5097505050505050505060405180910390f35b34801561092057600080fd5b5061095d6004803603604081101561093757600080fd5b81019080803563ffffffff16906020019092919080359060200190929190505050611b26565b604051808263ffffffff1663ffffffff16815260200191505060405180910390f35b34801561098b57600080fd5b506109be600480360360208110156109a257600080fd5b81019080803563ffffffff169060200190929190505050611b6e565b6040518080602001806020018473ffffffffffffffffffffffffffffffffffffffff1673ffffffffffffffffffffffffffffffffffffffff168152602001838103835286818151815260200191508051906020019080838360005b83811015610a34578082015181840152602081019050610a19565b50505050905090810190601f168015610a615780820380516001836020036101000a031916815260200191505b50838103825285818151815260200191508051906020019080838360005b83811015610a9a578082015181840152602081019050610a7f565b50505050905090810190601f168015610ac75780820380516001836020036101000a031916815260200191505b509550505050505060405180910390f35b348015610ae457600080fd5b50610b2160048036036040811015610afb57600080fd5b81019080803563ffffffff16906020019092919080359060200190929190505050611d3f565b604051808263ffffffff1663ffffffff16815260200191505060405180910390f35b348015610b4f57600080fd5b50610b58611d87565b604051808263ffffffff1663ffffffff16815260200191505060405180910390f35b348015610b8657600080fd5b50610b8f611d9d565b604051808263ffffffff1663ffffffff16815260200191505060405180910390f35b348015610bbd57600080fd5b50610d4e600480360360c0811015610bd457600080fd5b81019080803563ffffffff169060200190929190803563ffffffff16906020019092919080359060200190640100000000811115610c1157600080fd5b820183602082011115610c2357600080fd5b80359060200191846001830284011164010000000083111715610c4557600080fd5b91908080601f016020809104026020016040519081016040528093929190818152602001838380828437600081840152601f19601f82011690508083019250505050505050919291929080359060200190640100000000811115610ca857600080fd5b820183602082011115610cba57600080fd5b80359060200191846001830284011164010000000083111715610cdc57600080fd5b91908080601f016020809104026020016040519081016040528093929190818152602001838380828437600081840152601f19601f820116905080830192505050505050509192919290803563ffffffff169060200190929190803563ffffffff169060200190929190505050611db3565b604051808263ffffffff1663ffffffff16815260200191505060405180910390f35b348015610d7c57600080fd5b50610f8460048036036080811015610d9357600080fd5b8101908080359060200190640100000000811115610db057600080fd5b820183602082011115610dc257600080fd5b80359060200191846001830284011164010000000083111715610de457600080fd5b91908080601f016020809104026020016040519081016040528093929190818152602001838380828437600081840152601f19601f82011690508083019250505050505050919291929080359060200190640100000000811115610e4757600080fd5b820183602082011115610e5957600080fd5b80359060200191846001830284011164010000000083111715610e7b57600080fd5b91908080601f016020809104026020016040519081016040528093929190818152602001838380828437600081840152601f19601f82011690508083019250505050505050919291929080359060200190640100000000811115610ede57600080fd5b820183602082011115610ef057600080fd5b80359060200191846001830284011164010000000083111715610f1257600080fd5b91908080601f016020809104026020016040519081016040528093929190818152602001838380828437600081840152601f19601f820116905080830192505050505050509192919290803573ffffffffffffffffffffffffffffffffffffffff1690602001909291905050506121d7565b604051808263ffffffff1663ffffffff16815260200191505060405180910390f35b348015610fb257600080fd5b50610fbb612327565b604051808263ffffffff1663ffffffff16815260200191505060405180910390f35b348015610fe957600080fd5b506110266004803603604081101561100057600080fd5b81019080803563ffffffff1690602001909291908035906020019092919050505061233c565b604051808263ffffffff1663ffffffff16815260200191505060405180910390f35b34801561105457600080fd5b506110876004803603602081101561106b57600080fd5b81019080803563ffffffff169060200190929190505050612384565b6040518080602001806020018973ffffffffffffffffffffffffffffffffffffffff1673ffffffffffffffffffffffffffffffffffffffff1681526020018863ffffffff1663ffffffff1681526020018763ffffffff1663ffffffff1681526020018663ffffffff1663ffffffff1681526020018563ffffffff1663ffffffff1681526020018463ffffffff1663ffffffff16815260200183810383528b818151815260200191508051906020019080838360005b8381101561115757808201518184015260208101905061113c565b50505050905090810190601f1680156111845780820380516001836020036101000a031916815260200191505b5083810382528a818151815260200191508051906020019080838360005b838110156111bd5780820151818401526020810190506111a2565b50505050905090810190601f1680156111ea5780820380516001836020036101000a031916815260200191505b509a505050505050505050505060405180910390f35b6001602052806000526040600020600091509050806000018054600181600116156101000203166002900480601f0160208091040260200160405190810160405280929190818152602001828054600181600116156101000203166002900480156112ac5780601f10611281576101008083540402835291602001916112ac565b820191906000526020600020905b81548152906001019060200180831161128f57829003601f168201915b505050505090806001018054600181600116156101000203166002900480601f01602080910402602001604051908101604052809291908181526020018280546001816001161561010002031660029004801561134a5780601f1061131f5761010080835404028352916020019161134a565b820191906000526020600020905b81548152906001019060200180831161132d57829003601f168201915b5050505050908060020160009054906101000a900473ffffffffffffffffffffffffffffffffffffffff16908060020160149054906101000a900463ffffffff16908060020160189054906101000a900463ffffffff169080600201601c9054906101000a900463ffffffff16908060030160009054906101000a900463ffffffff16908060030160049054906101000a900463ffffffff16905088565b6003602052806000526040600020600091509050806000018054600181600116156101000203166002900480601f0160208091040260200160405190810160405280929190818152602001828054600181600116156101000203166002900480156114945780601f1061146957610100808354040283529160200191611494565b820191906000526020600020905b81548152906001019060200180831161147757829003601f168201915b505050505090806001018054600181600116156101000203166002900480601f0160208091040260200160405190810160405280929190818152602001828054600181600116156101000203166002900480156115325780601f1061150757610100808354040283529160200191611532565b820191906000526020600020905b81548152906001019060200180831161151557829003601f168201915b5050505050908060020160009054906101000a900473ffffffffffffffffffffffffffffffffffffffff16905083565b6000806000600481819054906101000a900463ffffffff168092919060010191906101000a81548163ffffffff021916908363ffffffff160217905550905084600360008363ffffffff1663ffffffff16815260200190815260200160002060000190805190602001906115d7929190612668565b5083600360008363ffffffff1663ffffffff168152602001908152602001600020600101908051906020019061160e929190612668565b5082600360008363ffffffff1663ffffffff16815260200190815260200160002060020160006101000a81548173ffffffffffffffffffffffffffffffffffffffff021916908373ffffffffffffffffffffffffffffffffffffffff160217905550809150509392505050565b60608060606000600260008663ffffffff1663ffffffff168152602001908152602001600020600001600260008763ffffffff1663ffffffff168152602001908152602001600020600101600260008863ffffffff1663ffffffff168152602001908152602001600020600201600260008963ffffffff1663ffffffff16815260200190815260200160002060030160009054906101000a900473ffffffffffffffffffffffffffffffffffffffff16838054600181600116156101000203166002900480601f0160208091040260200160405190810160405280929190818152602001828054600181600116156101000203166002900480156117c05780601f10611795576101008083540402835291602001916117c0565b820191906000526020600020905b8154815290600101906020018083116117a357829003601f168201915b50505050509350828054600181600116156101000203166002900480601f01602080910402602001604051908101604052809291908181526020018280546001816001161561010002031660029004801561185c5780601f106118315761010080835404028352916020019161185c565b820191906000526020600020905b81548152906001019060200180831161183f57829003601f168201915b50505050509250818054600181600116156101000203166002900480601f0160208091040260200160405190810160405280929190818152602001828054600181600116156101000203166002900480156118f85780601f106118cd576101008083540402835291602001916118f8565b820191906000526020600020905b8154815290600101906020018083116118db57829003601f168201915b5050505050915093509350935093509193509193565b6002602052806000526040600020600091509050806000018054600181600116156101000203166002900480601f0160208091040260200160405190810160405280929190818152602001828054600181600116156101000203166002900480156119ba5780601f1061198f576101008083540402835291602001916119ba565b820191906000526020600020905b81548152906001019060200180831161199d57829003601f168201915b505050505090806001018054600181600116156101000203166002900480601f016020809104026020016040519081016040528092919081815260200182805460018160011615610100020316600290048015611a585780601f10611a2d57610100808354040283529160200191611a58565b820191906000526020600020905b815481529060010190602001808311611a3b57829003601f168201915b505050505090806002018054600181600116156101000203166002900480601f016020809104026020016040519081016040528092919081815260200182805460018160011615610100020316600290048015611af65780601f10611acb57610100808354040283529160200191611af6565b820191906000526020600020905b815481529060010190602001808311611ad957829003601f168201915b5050505050908060030160009054906101000a900473ffffffffffffffffffffffffffffffffffffffff16905084565b600660205281600052604060002081815481101515611b4157fe5b9060005260206000209060089182820401919006600402915091509054906101000a900463ffffffff1681565b6060806000600360008563ffffffff1663ffffffff168152602001908152602001600020600001600360008663ffffffff1663ffffffff168152602001908152602001600020600101600360008763ffffffff1663ffffffff16815260200190815260200160002060020160009054906101000a900473ffffffffffffffffffffffffffffffffffffffff16828054600181600116156101000203166002900480601f016020809104026020016040519081016040528092919081815260200182805460018160011615610100020316600290048015611c8f5780601f10611c6457610100808354040283529160200191611c8f565b820191906000526020600020905b815481529060010190602001808311611c7257829003601f168201915b50505050509250818054600181600116156101000203166002900480601f016020809104026020016040519081016040528092919081815260200182805460018160011615610100020316600290048015611d2b5780601f10611d0057610100808354040283529160200191611d2b565b820191906000526020600020905b815481529060010190602001808311611d0e57829003601f168201915b505050505091509250925092509193909250565b600560205281600052604060002081815481101515611d5a57fe5b9060005260206000209060089182820401919006600402915091509054906101000a900463ffffffff1681565b600060049054906101000a900463ffffffff1681565b600060089054906101000a900463ffffffff1681565b6000806000600881819054906101000a900463ffffffff168092919060010191906101000a81548163ffffffff021916908363ffffffff160217905550905085600160008363ffffffff1663ffffffff1681526020019081526020016000206000019080519060200190611e28929190612668565b5084600160008363ffffffff1663ffffffff1681526020019081526020016000206001019080519060200190611e5f929190612668565b50600360008963ffffffff1663ffffffff16815260200190815260200160002060020160009054906101000a900473ffffffffffffffffffffffffffffffffffffffff16600160008363ffffffff1663ffffffff16815260200190815260200160002060020160006101000a81548173ffffffffffffffffffffffffffffffffffffffff021916908373ffffffffffffffffffffffffffffffffffffffff16021790555086600160008363ffffffff1663ffffffff16815260200190815260200160002060020160146101000a81548163ffffffff021916908363ffffffff16021790555083600160008363ffffffff1663ffffffff16815260200190815260200160002060020160186101000a81548163ffffffff021916908363ffffffff16021790555082600160008363ffffffff1663ffffffff168152602001908152602001600020600201601c6101000a81548163ffffffff021916908363ffffffff16021790555042600160008363ffffffff1663ffffffff16815260200190815260200160002060030160006101000a81548163ffffffff021916908363ffffffff16021790555062278d00600160008363ffffffff1663ffffffff16815260200190815260200160002060030160009054906101000a900463ffffffff1601600160008363ffffffff1663ffffffff16815260200190815260200160002060030160046101000a81548163ffffffff021916908363ffffffff160217905550600660008963ffffffff1663ffffffff16815260200190815260200160002081908060018154018082558091505090600182039060005260206000209060089182820401919006600402909192909190916101000a81548163ffffffff021916908363ffffffff16021790555050600560008263ffffffff1663ffffffff16815260200190815260200160002088908060018154018082558091505090600182039060005260206000209060089182820401919006600402909192909190916101000a81548163ffffffff021916908363ffffffff16021790555050600460008263ffffffff1663ffffffff16815260200190815260200160002087908060018154018082558091505090600182039060005260206000209060089182820401919006600402909192909190916101000a81548163ffffffff021916908363ffffffff16021790555050809150509695505050505050565b60008060008081819054906101000a900463ffffffff168092919060010191906101000a81548163ffffffff021916908363ffffffff160217905550905085600260008363ffffffff1663ffffffff168152602001908152602001600020600001908051906020019061224b929190612668565b5084600260008363ffffffff1663ffffffff1681526020019081526020016000206001019080519060200190612282929190612668565b5083600260008363ffffffff1663ffffffff16815260200190815260200160002060020190805190602001906122b9929190612668565b5082600260008363ffffffff1663ffffffff16815260200190815260200160002060030160006101000a81548173ffffffffffffffffffffffffffffffffffffffff021916908373ffffffffffffffffffffffffffffffffffffffff16021790555080915050949350505050565b6000809054906101000a900463ffffffff1681565b60046020528160005260406000208181548110151561235757fe5b9060005260206000209060089182820401919006600402915091509054906101000a900463ffffffff1681565b6060806000806000806000806123986126e8565b600160008b63ffffffff1663ffffffff1681526020019081526020016000206101006040519081016040529081600082018054600181600116156101000203166002900480601f01602080910402602001604051908101604052809291908181526020018280546001816001161561010002031660029004801561245d5780601f106124325761010080835404028352916020019161245d565b820191906000526020600020905b81548152906001019060200180831161244057829003601f168201915b50505050508152602001600182018054600181600116156101000203166002900480601f0160208091040260200160405190810160405280929190818152602001828054600181600116156101000203166002900480156124ff5780601f106124d4576101008083540402835291602001916124ff565b820191906000526020600020905b8154815290600101906020018083116124e257829003601f168201915b505050505081526020016002820160009054906101000a900473ffffffffffffffffffffffffffffffffffffffff1673ffffffffffffffffffffffffffffffffffffffff1673ffffffffffffffffffffffffffffffffffffffff1681526020016002820160149054906101000a900463ffffffff1663ffffffff1663ffffffff1681526020016002820160189054906101000a900463ffffffff1663ffffffff1663ffffffff16815260200160028201601c9054906101000a900463ffffffff1663ffffffff1663ffffffff1681526020016003820160009054906101000a900463ffffffff1663ffffffff1663ffffffff1681526020016003820160049054906101000a900463ffffffff1663ffffffff1663ffffffff16815250509050806000015181602001518260400151836060015184608001518560a001518660c001518760e001518797508696509850985098509850985098509850985050919395975091939597565b828054600181600116156101000203166002900490600052602060002090601f016020900481019282601f106126a957805160ff19168380011785556126d7565b828001600101855582156126d7579182015b828111156126d65782518255916020019190600101906126bb565b5b5090506126e49190612762565b5090565b610100604051908101604052806060815260200160608152602001600073ffffffffffffffffffffffffffffffffffffffff168152602001600063ffffffff168152602001600063ffffffff168152602001600063ffffffff168152602001600063ffffffff168152602001600063ffffffff1681525090565b61278491905b80821115612780576000816000905550600101612768565b5090565b9056fea165627a7a72305820eae972c66bc3e34e566d1f4bae02dc8761207100ba0321e4daeff2ca64a0b8380029",
  "source": "// SPDX-License-Identifier: MIT\r\npragma solidity >=0.4.22 <0.9.0;\r\n\r\nimport \"./DataModel.sol\";\r\n\r\ncontract GetSet is DataModel {\r\n\r\n    event transferOwner(uint32 houseId);\r\n    event tranferTenant(uint32 houseId);\r\n    event paymentReceived(uint32 houseId, uint32 rent);\r\n    \r\n    function addOwner(string memory _oName, \r\n            string memory _phNum,\r\n            address _oAddr) public returns (uint32){\r\n        uint32 Id = owner_id++;\r\n        owners[Id].ownerName= _oName;\r\n        owners[Id].phoneNumber = _phNum;\r\n        owners[Id].ownerAddress = _oAddr;\r\n        return Id;\r\n    }\r\n    function getOwner(uint32 _OwnerId) public view returns (string memory, string memory, address) {\r\n        return (owners[_OwnerId].ownerName,\r\n                owners[_OwnerId].phoneNumber,\r\n                owners[_OwnerId].ownerAddress);\r\n    }\r\n\r\n    function addTenant(\r\n            string memory _tName, \r\n            string memory _bcId, \r\n            string memory _tphNum,\r\n            address _tAddr) public returns (uint32){\r\n        uint32 Id = tenant_id++;\r\n        tenants[Id].tenantName= _tName;\r\n        tenants[Id].bcId = _bcId;\r\n        tenants[Id].phoneNumber = _tphNum;\r\n        tenants[Id].tenantAddress = _tAddr;\r\n        return Id;\r\n    }\r\n    function getTenant(uint32 _tenantId) public view returns (string memory,string memory, string memory, address) {\r\n        return (tenants[_tenantId].tenantName,\r\n                tenants[_tenantId].bcId,\r\n                tenants[_tenantId].phoneNumber,\r\n                tenants[_tenantId].tenantAddress);\r\n    }\r\n\r\n    \r\n    function addHouse(uint32 _ownerId,\r\n                      uint32 _tenantId,\r\n                        string memory _houseNumber,\r\n                        string memory _houseAddress,\r\n                        uint32 _rent,\r\n                        uint32 _tenancy) public returns (uint32) {\r\n            uint32 Id = house_id++;\r\n            houses[Id].houseNumber = _houseNumber;\r\n            houses[Id].houseAddress = _houseAddress;\r\n            houses[Id].ownerAddress = owners[_ownerId].ownerAddress;\r\n            houses[Id].tenantId = _tenantId;\r\n            houses[Id].rent = _rent;\r\n            houses[Id].tenancy = _tenancy;\r\n            houses[Id].startDate = uint32(block.timestamp);\r\n            houses[Id].nextPaymentDate = houses[Id].startDate + 30 days;\r\n\r\n            trackOwnedHouses[_ownerId].push(Id);\r\n            trackHouseOwners[Id].push(_ownerId);\r\n            trackHouseTenants[Id].push(_tenantId);\r\n            return Id;\r\n        }\r\n    function getHouse(uint32 _houseId) public view returns (string memory,string memory,address,uint32,uint32, uint32, uint32, uint32){\r\n        house memory h = houses[_houseId];\r\n        return (h.houseNumber,\r\n                h.houseAddress,\r\n                h.ownerAddress,\r\n                h.tenantId,\r\n                h.rent,\r\n                h.tenancy,\r\n                h.startDate,\r\n                h.nextPaymentDate);\r\n    }\r\n}",
  "sourcePath": "D:\\Blockchain\\rentalApp\\contracts\\GetSet.sol",
  "compiler": {
    "name": "solc",
    "version": "0.5.1+commit.c8a2cb62.Emscripten.clang"
  },
  "schemaVersion": "3.4.16",
  "updatedAt": "2024-05-04T15:03:11.526Z",
  "devdoc": {
    "methods": {}
  },
  "userdoc": {
    "methods": {}
  }
}