{
  "contractName": "Rental",
  "abi": [
    {
      "constant": true,
      "inputs": [
        {
          "name": "",
          "type": "uint32"
        }
      ],
      "name": "houses",
      "outputs": [
        {
          "name": "houseNumber",
          "type": "string"
        },
        {
          "name": "houseAddress",
          "type": "string"
        },
        {
          "name": "ownerAddress",
          "type": "address"
        },
        {
          "name": "tenantId",
          "type": "uint32"
        },
        {
          "name": "rent",
          "type": "uint32"
        },
        {
          "name": "tenancy",
          "type": "uint32"
        },
        {
          "name": "startDate",
          "type": "uint32"
        },
        {
          "name": "nextPaymentDate",
          "type": "uint32"
        }
      ],
      "payable": false,
      "stateMutability": "view",
      "type": "function"
    },
    {
      "constant": true,
      "inputs": [
        {
          "name": "",
          "type": "uint32"
        }
      ],
      "name": "owners",
      "outputs": [
        {
          "name": "ownerName",
          "type": "string"
        },
        {
          "name": "phoneNumber",
          "type": "string"
        },
        {
          "name": "ownerAddress",
          "type": "address"
        }
      ],
      "payable": false,
      "stateMutability": "view",
      "type": "function"
    },
    {
      "constant": false,
      "inputs": [
        {
          "name": "_oName",
          "type": "string"
        },
        {
          "name": "_phNum",
          "type": "string"
        },
        {
          "name": "_oAddr",
          "type": "address"
        }
      ],
      "name": "addOwner",
      "outputs": [
        {
          "name": "",
          "type": "uint32"
        }
      ],
      "payable": false,
      "stateMutability": "nonpayable",
      "type": "function"
    },
    {
      "constant": true,
      "inputs": [
        {
          "name": "_tenantId",
          "type": "uint32"
        }
      ],
      "name": "getTenant",
      "outputs": [
        {
          "name": "",
          "type": "string"
        },
        {
          "name": "",
          "type": "string"
        },
        {
          "name": "",
          "type": "string"
        },
        {
          "name": "",
          "type": "address"
        }
      ],
      "payable": false,
      "stateMutability": "view",
      "type": "function"
    },
    {
      "constant": true,
      "inputs": [
        {
          "name": "",
          "type": "uint32"
        }
      ],
      "name": "tenants",
      "outputs": [
        {
          "name": "tenantName",
          "type": "string"
        },
        {
          "name": "bcId",
          "type": "string"
        },
        {
          "name": "phoneNumber",
          "type": "string"
        },
        {
          "name": "tenantAddress",
          "type": "address"
        }
      ],
      "payable": false,
      "stateMutability": "view",
      "type": "function"
    },
    {
      "constant": true,
      "inputs": [
        {
          "name": "",
          "type": "uint32"
        },
        {
          "name": "",
          "type": "uint256"
        }
      ],
      "name": "trackOwnedHouses",
      "outputs": [
        {
          "name": "",
          "type": "uint32"
        }
      ],
      "payable": false,
      "stateMutability": "view",
      "type": "function"
    },
    {
      "constant": true,
      "inputs": [
        {
          "name": "_OwnerId",
          "type": "uint32"
        }
      ],
      "name": "getOwner",
      "outputs": [
        {
          "name": "",
          "type": "string"
        },
        {
          "name": "",
          "type": "string"
        },
        {
          "name": "",
          "type": "address"
        }
      ],
      "payable": false,
      "stateMutability": "view",
      "type": "function"
    },
    {
      "constant": true,
      "inputs": [
        {
          "name": "",
          "type": "uint32"
        },
        {
          "name": "",
          "type": "uint256"
        }
      ],
      "name": "trackHouseOwners",
      "outputs": [
        {
          "name": "",
          "type": "uint32"
        }
      ],
      "payable": false,
      "stateMutability": "view",
      "type": "function"
    },
    {
      "constant": true,
      "inputs": [],
      "name": "owner_id",
      "outputs": [
        {
          "name": "",
          "type": "uint32"
        }
      ],
      "payable": false,
      "stateMutability": "view",
      "type": "function"
    },
    {
      "constant": true,
      "inputs": [],
      "name": "house_id",
      "outputs": [
        {
          "name": "",
          "type": "uint32"
        }
      ],
      "payable": false,
      "stateMutability": "view",
      "type": "function"
    },
    {
      "constant": false,
      "inputs": [
        {
          "name": "_ownerId",
          "type": "uint32"
        },
        {
          "name": "_tenantId",
          "type": "uint32"
        },
        {
          "name": "_houseNumber",
          "type": "string"
        },
        {
          "name": "_houseAddress",
          "type": "string"
        },
        {
          "name": "_rent",
          "type": "uint32"
        },
        {
          "name": "_tenancy",
          "type": "uint32"
        }
      ],
      "name": "addHouse",
      "outputs": [
        {
          "name": "",
          "type": "uint32"
        }
      ],
      "payable": false,
      "stateMutability": "nonpayable",
      "type": "function"
    },
    {
      "constant": false,
      "inputs": [
        {
          "name": "_tName",
          "type": "string"
        },
        {
          "name": "_bcId",
          "type": "string"
        },
        {
          "name": "_tphNum",
          "type": "string"
        },
        {
          "name": "_tAddr",
          "type": "address"
        }
      ],
      "name": "addTenant",
      "outputs": [
        {
          "name": "",
          "type": "uint32"
        }
      ],
      "payable": false,
      "stateMutability": "nonpayable",
      "type": "function"
    },
    {
      "constant": true,
      "inputs": [],
      "name": "tenant_id",
      "outputs": [
        {
          "name": "",
          "type": "uint32"
        }
      ],
      "payable": false,
      "stateMutability": "view",
      "type": "function"
    },
    {
      "constant": true,
      "inputs": [
        {
          "name": "",
          "type": "uint32"
        },
        {
          "name": "",
          "type": "uint256"
        }
      ],
      "name": "trackHouseTenants",
      "outputs": [
        {
          "name": "",
          "type": "uint32"
        }
      ],
      "payable": false,
      "stateMutability": "view",
      "type": "function"
    },
    {
      "constant": true,
      "inputs": [
        {
          "name": "_houseId",
          "type": "uint32"
        }
      ],
      "name": "getHouse",
      "outputs": [
        {
          "name": "",
          "type": "string"
        },
        {
          "name": "",
          "type": "string"
        },
        {
          "name": "",
          "type": "address"
        },
        {
          "name": "",
          "type": "uint32"
        },
        {
          "name": "",
          "type": "uint32"
        },
        {
          "name": "",
          "type": "uint32"
        },
        {
          "name": "",
          "type": "uint32"
        },
        {
          "name": "",
          "type": "uint32"
        }
      ],
      "payable": false,
      "stateMutability": "view",
      "type": "function"
    },
    {
      "anonymous": false,
      "inputs": [
        {
          "indexed": false,
          "name": "houseId",
          "type": "uint32"
        }
      ],
      "name": "transferOwner",
      "type": "event"
    },
    {
      "anonymous": false,
      "inputs": [
        {
          "indexed": false,
          "name": "houseId",
          "type": "uint32"
        }
      ],
      "name": "tranferTenant",
      "type": "event"
    },
    {
      "anonymous": false,
      "inputs": [
        {
          "indexed": false,
          "name": "houseId",
          "type": "uint32"
        },
        {
          "indexed": false,
          "name": "rent",
          "type": "uint32"
        }
      ],
      "name": "paymentReceived",
      "type": "event"
    },
    {
      "constant": false,
      "inputs": [
        {
          "name": "_oldOwnerId",
          "type": "uint32"
        },
        {
          "name": "_newOwnerId",
          "type": "uint32"
        },
        {
          "name": "_houseId",
          "type": "uint32"
        }
      ],
      "name": "newOwner",
      "outputs": [
        {
          "name": "",
          "type": "uint32"
        }
      ],
      "payable": false,
      "stateMutability": "nonpayable",
      "type": "function"
    },
    {
      "constant": false,
      "inputs": [
        {
          "name": "_houseId",
          "type": "uint32"
        },
        {
          "name": "_newTenantId",
          "type": "uint32"
        },
        {
          "name": "_rent",
          "type": "uint32"
        },
        {
          "name": "_tenancy",
          "type": "uint32"
        }
      ],
      "name": "newTenant",
      "outputs": [
        {
          "name": "",
          "type": "uint32"
        }
      ],
      "payable": false,
      "stateMutability": "nonpayable",
      "type": "function"
    },
    {
      "constant": true,
      "inputs": [
        {
          "name": "_houseId",
          "type": "uint32"
        }
      ],
      "name": "viewTenantDetails",
      "outputs": [
        {
          "name": "",
          "type": "uint32"
        },
        {
          "name": "",
          "type": "string"
        },
        {
          "name": "",
          "type": "string"
        },
        {
          "name": "",
          "type": "string"
        },
        {
          "name": "",
          "type": "address"
        }
      ],
      "payable": false,
      "stateMutability": "view",
      "type": "function"
    },
    {
      "constant": false,
      "inputs": [
        {
          "name": "_houseId",
          "type": "uint32"
        },
        {
          "name": "_rent",
          "type": "uint32"
        },
        {
          "name": "_tenancy",
          "type": "uint32"
        }
      ],
      "name": "modifyTenant",
      "outputs": [
        {
          "name": "",
          "type": "uint32"
        }
      ],
      "payable": false,
      "stateMutability": "nonpayable",
      "type": "function"
    },
    {
      "constant": false,
      "inputs": [
        {
          "name": "_houseId",
          "type": "uint32"
        },
        {
          "name": "_tenantId",
          "type": "uint32"
        },
        {
          "name": "_rent",
          "type": "uint32"
        }
      ],
      "name": "payRent",
      "outputs": [
        {
          "name": "",
          "type": "bool"
        }
      ],
      "payable": false,
      "stateMutability": "nonpayable",
      "type": "function"
    },
    {
      "constant": true,
      "inputs": [
        {
          "name": "_houseId",
          "type": "uint32"
        }
      ],
      "name": "checkRentDue",
      "outputs": [
        {
          "name": "",
          "type": "bool"
        }
      ],
      "payable": false,
      "stateMutability": "view",
      "type": "function"
    },
    {
      "constant": true,
      "inputs": [
        {
          "name": "_ownerId",
          "type": "uint32"
        }
      ],
      "name": "OwnedHouses",
      "outputs": [
        {
          "name": "",
          "type": "uint32[]"
        }
      ],
      "payable": false,
      "stateMutability": "view",
      "type": "function"
    },
    {
      "constant": true,
      "inputs": [
        {
          "name": "_houseId",
          "type": "uint32"
        }
      ],
      "name": "houseOwners",
      "outputs": [
        {
          "name": "",
          "type": "uint32[]"
        }
      ],
      "payable": false,
      "stateMutability": "view",
      "type": "function"
    },
    {
      "constant": true,
      "inputs": [
        {
          "name": "_houseId",
          "type": "uint32"
        }
      ],
      "name": "houseTenants",
      "outputs": [
        {
          "name": "",
          "type": "uint32[]"
        }
      ],
      "payable": false,
      "stateMutability": "view",
      "type": "function"
    }
  ],
  "bytecode": "0x608060405260016000806101000a81548163ffffffff021916908363ffffffff16021790555060008060046101000a81548163ffffffff021916908363ffffffff16021790555060008060086101000a81548163ffffffff021916908363ffffffff160217905550336000600c6101000a81548173ffffffffffffffffffffffffffffffffffffffff021916908373ffffffffffffffffffffffffffffffffffffffff1602179055503480156100b457600080fd5b50614957806100c46000396000f3fe608060405260043610610138576000357c010000000000000000000000000000000000000000000000000000000090048063074a084f1461013d578063180dc318146102f557806326cdab0f1461044e5780632e9d5284146105ed57806353e445801461066e57806355abebc114610833578063567b259f146109f85780636127278a14610a89578063621b23e214610af45780637a444a1914610c4d5780638bef063914610ce35780638f5ebf7114610d4e5780639712904a14610d85578063b01a57ff14610dbc578063b0cc8c1114610f7b578063c1ace86814610ffc578063c40ed82614611075578063c5f86d49146110ce578063c5ffcc6a14611304578063d6741615146114dc578063d87fc2ad14611513578063ee1a5194146115a9578063f7ddd14d14611614578063f923e608146117cc575b600080fd5b34801561014957600080fd5b5061017c6004803603602081101561016057600080fd5b81019080803563ffffffff169060200190929190505050611862565b6040518080602001806020018973ffffffffffffffffffffffffffffffffffffffff1673ffffffffffffffffffffffffffffffffffffffff1681526020018863ffffffff1663ffffffff1681526020018763ffffffff1663ffffffff1681526020018663ffffffff1663ffffffff1681526020018563ffffffff1663ffffffff1681526020018463ffffffff1663ffffffff16815260200183810383528b818151815260200191508051906020019080838360005b8381101561024c578082015181840152602081019050610231565b50505050905090810190601f1680156102795780820380516001836020036101000a031916815260200191505b5083810382528a818151815260200191508051906020019080838360005b838110156102b2578082015181840152602081019050610297565b50505050905090810190601f1680156102df5780820380516001836020036101000a031916815260200191505b509a505050505050505050505060405180910390f35b34801561030157600080fd5b506103346004803603602081101561031857600080fd5b81019080803563ffffffff169060200190929190505050611a4a565b6040518080602001806020018473ffffffffffffffffffffffffffffffffffffffff1673ffffffffffffffffffffffffffffffffffffffff168152602001838103835286818151815260200191508051906020019080838360005b838110156103aa57808201518184015260208101905061038f565b50505050905090810190601f1680156103d75780820380516001836020036101000a031916815260200191505b50838103825285818151815260200191508051906020019080838360005b838110156104105780820151818401526020810190506103f5565b50505050905090810190601f16801561043d5780820380516001836020036101000a031916815260200191505b509550505050505060405180910390f35b34801561045a57600080fd5b506105cb6004803603606081101561047157600080fd5b810190808035906020019064010000000081111561048e57600080fd5b8201836020820111156104a057600080fd5b803590602001918460018302840111640100000000831117156104c257600080fd5b91908080601f016020809104026020016040519081016040528093929190818152602001838380828437600081840152601f19601f8201169050808301925050505050505091929192908035906020019064010000000081111561052557600080fd5b82018360208201111561053757600080fd5b8035906020019184600183028401116401000000008311171561055957600080fd5b91908080601f016020809104026020016040519081016040528093929190818152602001838380828437600081840152601f19601f820116905080830192505050505050509192919290803573ffffffffffffffffffffffffffffffffffffffff169060200190929190505050611bc4565b604051808263ffffffff1663ffffffff16815260200191505060405180910390f35b3480156105f957600080fd5b5061064c6004803603606081101561061057600080fd5b81019080803563ffffffff169060200190929190803563ffffffff169060200190929190803563ffffffff169060200190929190505050611cdd565b604051808263ffffffff1663ffffffff16815260200191505060405180910390f35b34801561067a57600080fd5b506106ad6004803603602081101561069157600080fd5b81019080803563ffffffff169060200190929190505050612264565b604051808060200180602001806020018573ffffffffffffffffffffffffffffffffffffffff1673ffffffffffffffffffffffffffffffffffffffff168152602001848103845288818151815260200191508051906020019080838360005b8381101561072757808201518184015260208101905061070c565b50505050905090810190601f1680156107545780820380516001836020036101000a031916815260200191505b50848103835287818151815260200191508051906020019080838360005b8381101561078d578082015181840152602081019050610772565b50505050905090810190601f1680156107ba5780820380516001836020036101000a031916815260200191505b50848103825286818151815260200191508051906020019080838360005b838110156107f35780820151818401526020810190506107d8565b50505050905090810190601f1680156108205780820380516001836020036101000a031916815260200191505b5097505050505050505060405180910390f35b34801561083f57600080fd5b506108726004803603602081101561085657600080fd5b81019080803563ffffffff1690602001909291905050506124f7565b604051808060200180602001806020018573ffffffffffffffffffffffffffffffffffffffff1673ffffffffffffffffffffffffffffffffffffffff168152602001848103845288818151815260200191508051906020019080838360005b838110156108ec5780820151818401526020810190506108d1565b50505050905090810190601f1680156109195780820380516001836020036101000a031916815260200191505b50848103835287818151815260200191508051906020019080838360005b83811015610952578082015181840152602081019050610937565b50505050905090810190601f16801561097f5780820380516001836020036101000a031916815260200191505b50848103825286818151815260200191508051906020019080838360005b838110156109b857808201518184015260208101905061099d565b50505050905090810190601f1680156109e55780820380516001836020036101000a031916815260200191505b5097505050505050505060405180910390f35b348015610a0457600080fd5b50610a6760048036036080811015610a1b57600080fd5b81019080803563ffffffff169060200190929190803563ffffffff169060200190929190803563ffffffff169060200190929190803563ffffffff16906020019092919050505061270f565b604051808263ffffffff1663ffffffff16815260200191505060405180910390f35b348015610a9557600080fd5b50610ad260048036036040811015610aac57600080fd5b81019080803563ffffffff169060200190929190803590602001909291905050506129b8565b604051808263ffffffff1663ffffffff16815260200191505060405180910390f35b348015610b0057600080fd5b50610b3360048036036020811015610b1757600080fd5b81019080803563ffffffff169060200190929190505050612a00565b6040518080602001806020018473ffffffffffffffffffffffffffffffffffffffff1673ffffffffffffffffffffffffffffffffffffffff168152602001838103835286818151815260200191508051906020019080838360005b83811015610ba9578082015181840152602081019050610b8e565b50505050905090810190601f168015610bd65780820380516001836020036101000a031916815260200191505b50838103825285818151815260200191508051906020019080838360005b83811015610c0f578082015181840152602081019050610bf4565b50505050905090810190601f168015610c3c5780820380516001836020036101000a031916815260200191505b509550505050505060405180910390f35b348015610c5957600080fd5b50610c8c60048036036020811015610c7057600080fd5b81019080803563ffffffff169060200190929190505050612bd1565b6040518080602001828103825283818151815260200191508051906020019060200280838360005b83811015610ccf578082015181840152602081019050610cb4565b505050509050019250505060405180910390f35b348015610cef57600080fd5b50610d2c60048036036040811015610d0657600080fd5b81019080803563ffffffff16906020019092919080359060200190929190505050612d39565b604051808263ffffffff1663ffffffff16815260200191505060405180910390f35b348015610d5a57600080fd5b50610d63612d81565b604051808263ffffffff1663ffffffff16815260200191505060405180910390f35b348015610d9157600080fd5b50610d9a612d97565b604051808263ffffffff1663ffffffff16815260200191505060405180910390f35b348015610dc857600080fd5b50610f59600480360360c0811015610ddf57600080fd5b81019080803563ffffffff169060200190929190803563ffffffff16906020019092919080359060200190640100000000811115610e1c57600080fd5b820183602082011115610e2e57600080fd5b80359060200191846001830284011164010000000083111715610e5057600080fd5b91908080601f016020809104026020016040519081016040528093929190818152602001838380828437600081840152601f19601f82011690508083019250505050505050919291929080359060200190640100000000811115610eb357600080fd5b820183602082011115610ec557600080fd5b80359060200191846001830284011164010000000083111715610ee757600080fd5b91908080601f016020809104026020016040519081016040528093929190818152602001838380828437600081840152601f19601f820116905080830192505050505050509192919290803563ffffffff169060200190929190803563ffffffff169060200190929190505050612dad565b604051808263ffffffff1663ffffffff16815260200191505060405180910390f35b348015610f8757600080fd5b50610fda60048036036060811015610f9e57600080fd5b81019080803563ffffffff169060200190929190803563ffffffff169060200190929190803563ffffffff1690602001909291905050506131d1565b604051808263ffffffff1663ffffffff16815260200191505060405180910390f35b34801561100857600080fd5b5061105b6004803603606081101561101f57600080fd5b81019080803563ffffffff169060200190929190803563ffffffff169060200190929190803563ffffffff169060200190929190505050613440565b604051808215151515815260200191505060405180910390f35b34801561108157600080fd5b506110b46004803603602081101561109857600080fd5b81019080803563ffffffff1690602001909291905050506137f4565b604051808215151515815260200191505060405180910390f35b3480156110da57600080fd5b506112e2600480360360808110156110f157600080fd5b810190808035906020019064010000000081111561110e57600080fd5b82018360208201111561112057600080fd5b8035906020019184600183028401116401000000008311171561114257600080fd5b91908080601f016020809104026020016040519081016040528093929190818152602001838380828437600081840152601f19601f820116905080830192505050505050509192919290803590602001906401000000008111156111a557600080fd5b8201836020820111156111b757600080fd5b803590602001918460018302840111640100000000831117156111d957600080fd5b91908080601f016020809104026020016040519081016040528093929190818152602001838380828437600081840152601f19601f8201169050808301925050505050505091929192908035906020019064010000000081111561123c57600080fd5b82018360208201111561124e57600080fd5b8035906020019184600183028401116401000000008311171561127057600080fd5b91908080601f016020809104026020016040519081016040528093929190818152602001838380828437600081840152601f19601f820116905080830192505050505050509192919290803573ffffffffffffffffffffffffffffffffffffffff1690602001909291905050506139d3565b604051808263ffffffff1663ffffffff16815260200191505060405180910390f35b34801561131057600080fd5b506113436004803603602081101561132757600080fd5b81019080803563ffffffff169060200190929190505050613b23565b604051808663ffffffff1663ffffffff1681526020018060200180602001806020018573ffffffffffffffffffffffffffffffffffffffff1673ffffffffffffffffffffffffffffffffffffffff168152602001848103845288818151815260200191508051906020019080838360005b838110156113cf5780820151818401526020810190506113b4565b50505050905090810190601f1680156113fc5780820380516001836020036101000a031916815260200191505b50848103835287818151815260200191508051906020019080838360005b8381101561143557808201518184015260208101905061141a565b50505050905090810190601f1680156114625780820380516001836020036101000a031916815260200191505b50848103825286818151815260200191508051906020019080838360005b8381101561149b578082015181840152602081019050611480565b50505050905090810190601f1680156114c85780820380516001836020036101000a031916815260200191505b509850505050505050505060405180910390f35b3480156114e857600080fd5b506114f1613f8f565b604051808263ffffffff1663ffffffff16815260200191505060405180910390f35b34801561151f57600080fd5b506115526004803603602081101561153657600080fd5b81019080803563ffffffff169060200190929190505050613fa4565b6040518080602001828103825283818151815260200191508051906020019060200280838360005b8381101561159557808201518184015260208101905061157a565b505050509050019250505060405180910390f35b3480156115b557600080fd5b506115f2600480360360408110156115cc57600080fd5b81019080803563ffffffff1690602001909291908035906020019092919050505061410c565b604051808263ffffffff1663ffffffff16815260200191505060405180910390f35b34801561162057600080fd5b506116536004803603602081101561163757600080fd5b81019080803563ffffffff169060200190929190505050614154565b6040518080602001806020018973ffffffffffffffffffffffffffffffffffffffff1673ffffffffffffffffffffffffffffffffffffffff1681526020018863ffffffff1663ffffffff1681526020018763ffffffff1663ffffffff1681526020018663ffffffff1663ffffffff1681526020018563ffffffff1663ffffffff1681526020018463ffffffff1663ffffffff16815260200183810383528b818151815260200191508051906020019080838360005b83811015611723578082015181840152602081019050611708565b50505050905090810190601f1680156117505780820380516001836020036101000a031916815260200191505b5083810382528a818151815260200191508051906020019080838360005b8381101561178957808201518184015260208101905061176e565b50505050905090810190601f1680156117b65780820380516001836020036101000a031916815260200191505b509a505050505050505050505060405180910390f35b3480156117d857600080fd5b5061180b600480360360208110156117ef57600080fd5b81019080803563ffffffff169060200190929190505050614438565b6040518080602001828103825283818151815260200191508051906020019060200280838360005b8381101561184e578082015181840152602081019050611833565b505050509050019250505060405180910390f35b6001602052806000526040600020600091509050806000018054600181600116156101000203166002900480601f01602080910402602001604051908101604052809291908181526020018280546001816001161561010002031660029004801561190e5780601f106118e35761010080835404028352916020019161190e565b820191906000526020600020905b8154815290600101906020018083116118f157829003601f168201915b505050505090806001018054600181600116156101000203166002900480601f0160208091040260200160405190810160405280929190818152602001828054600181600116156101000203166002900480156119ac5780601f10611981576101008083540402835291602001916119ac565b820191906000526020600020905b81548152906001019060200180831161198f57829003601f168201915b5050505050908060020160009054906101000a900473ffffffffffffffffffffffffffffffffffffffff16908060020160149054906101000a900463ffffffff16908060020160189054906101000a900463ffffffff169080600201601c9054906101000a900463ffffffff16908060030160009054906101000a900463ffffffff16908060030160049054906101000a900463ffffffff16905088565b6003602052806000526040600020600091509050806000018054600181600116156101000203166002900480601f016020809104026020016040519081016040528092919081815260200182805460018160011615610100020316600290048015611af65780601f10611acb57610100808354040283529160200191611af6565b820191906000526020600020905b815481529060010190602001808311611ad957829003601f168201915b505050505090806001018054600181600116156101000203166002900480601f016020809104026020016040519081016040528092919081815260200182805460018160011615610100020316600290048015611b945780601f10611b6957610100808354040283529160200191611b94565b820191906000526020600020905b815481529060010190602001808311611b7757829003601f168201915b5050505050908060020160009054906101000a900473ffffffffffffffffffffffffffffffffffffffff16905083565b6000806000600481819054906101000a900463ffffffff168092919060010191906101000a81548163ffffffff021916908363ffffffff160217905550905084600360008363ffffffff1663ffffffff1681526020019081526020016000206000019080519060200190611c399291906147d4565b5083600360008363ffffffff1663ffffffff1681526020019081526020016000206001019080519060200190611c709291906147d4565b5082600360008363ffffffff1663ffffffff16815260200190815260200160002060020160006101000a81548173ffffffffffffffffffffffffffffffffffffffff021916908373ffffffffffffffffffffffffffffffffffffffff160217905550809150509392505050565b600081600160008263ffffffff1663ffffffff16815260200190815260200160002060020160009054906101000a900473ffffffffffffffffffffffffffffffffffffffff1673ffffffffffffffffffffffffffffffffffffffff163373ffffffffffffffffffffffffffffffffffffffff16141515611dc5576040517f08c379a00000000000000000000000000000000000000000000000000000000081526004018080602001828103825260158152602001807f596f7520617265206e6f7420746865206f776e6572000000000000000000000081525060200191505060405180910390fd5b611dcf85846145a0565b50611dd8614854565b600360008663ffffffff1663ffffffff16815260200190815260200160002060606040519081016040529081600082018054600181600116156101000203166002900480601f016020809104026020016040519081016040528092919081815260200182805460018160011615610100020316600290048015611e9c5780601f10611e7157610100808354040283529160200191611e9c565b820191906000526020600020905b815481529060010190602001808311611e7f57829003601f168201915b50505050508152602001600182018054600181600116156101000203166002900480601f016020809104026020016040519081016040528092919081815260200182805460018160011615610100020316600290048015611f3e5780601f10611f1357610100808354040283529160200191611f3e565b820191906000526020600020905b815481529060010190602001808311611f2157829003601f168201915b505050505081526020016002820160009054906101000a900473ffffffffffffffffffffffffffffffffffffffff1673ffffffffffffffffffffffffffffffffffffffff1673ffffffffffffffffffffffffffffffffffffffff168152505090508060400151600160008663ffffffff1663ffffffff16815260200190815260200160002060020160006101000a81548173ffffffffffffffffffffffffffffffffffffffff021916908373ffffffffffffffffffffffffffffffffffffffff1602179055506000600160008663ffffffff1663ffffffff16815260200190815260200160002060020160146101000a81548163ffffffff021916908363ffffffff1602179055506000600160008663ffffffff1663ffffffff16815260200190815260200160002060020160186101000a81548163ffffffff021916908363ffffffff1602179055506000600160008663ffffffff1663ffffffff168152602001908152602001600020600201601c6101000a81548163ffffffff021916908363ffffffff160217905550600660008663ffffffff1663ffffffff16815260200190815260200160002084908060018154018082558091505090600182039060005260206000209060089182820401919006600402909192909190916101000a81548163ffffffff021916908363ffffffff16021790555050600560008563ffffffff1663ffffffff16815260200190815260200160002085908060018154018082558091505090600182039060005260206000209060089182820401919006600402909192909190916101000a81548163ffffffff021916908363ffffffff16021790555050600460008563ffffffff1663ffffffff1681526020019081526020016000206000908060018154018082558091505090600182039060005260206000209060089182820401919006600402909192909190916101000a81548163ffffffff021916908363ffffffff160217905550507f4a13196e388f589c47c669ba7a49cd6970f53e1e684552980bb33198d3a3272984604051808263ffffffff1663ffffffff16815260200191505060405180910390a184925050509392505050565b60608060606000600260008663ffffffff1663ffffffff168152602001908152602001600020600001600260008763ffffffff1663ffffffff168152602001908152602001600020600101600260008863ffffffff1663ffffffff168152602001908152602001600020600201600260008963ffffffff1663ffffffff16815260200190815260200160002060030160009054906101000a900473ffffffffffffffffffffffffffffffffffffffff16838054600181600116156101000203166002900480601f0160208091040260200160405190810160405280929190818152602001828054600181600116156101000203166002900480156123a95780601f1061237e576101008083540402835291602001916123a9565b820191906000526020600020905b81548152906001019060200180831161238c57829003601f168201915b50505050509350828054600181600116156101000203166002900480601f0160208091040260200160405190810160405280929190818152602001828054600181600116156101000203166002900480156124455780601f1061241a57610100808354040283529160200191612445565b820191906000526020600020905b81548152906001019060200180831161242857829003601f168201915b50505050509250818054600181600116156101000203166002900480601f0160208091040260200160405190810160405280929190818152602001828054600181600116156101000203166002900480156124e15780601f106124b6576101008083540402835291602001916124e1565b820191906000526020600020905b8154815290600101906020018083116124c457829003601f168201915b5050505050915093509350935093509193509193565b6002602052806000526040600020600091509050806000018054600181600116156101000203166002900480601f0160208091040260200160405190810160405280929190818152602001828054600181600116156101000203166002900480156125a35780601f10612578576101008083540402835291602001916125a3565b820191906000526020600020905b81548152906001019060200180831161258657829003601f168201915b505050505090806001018054600181600116156101000203166002900480601f0160208091040260200160405190810160405280929190818152602001828054600181600116156101000203166002900480156126415780601f1061261657610100808354040283529160200191612641565b820191906000526020600020905b81548152906001019060200180831161262457829003601f168201915b505050505090806002018054600181600116156101000203166002900480601f0160208091040260200160405190810160405280929190818152602001828054600181600116156101000203166002900480156126df5780601f106126b4576101008083540402835291602001916126df565b820191906000526020600020905b8154815290600101906020018083116126c257829003601f168201915b5050505050908060030160009054906101000a900473ffffffffffffffffffffffffffffffffffffffff16905084565b600084600160008263ffffffff1663ffffffff16815260200190815260200160002060020160009054906101000a900473ffffffffffffffffffffffffffffffffffffffff1673ffffffffffffffffffffffffffffffffffffffff163373ffffffffffffffffffffffffffffffffffffffff161415156127f7576040517f08c379a00000000000000000000000000000000000000000000000000000000081526004018080602001828103825260158152602001807f596f7520617265206e6f7420746865206f776e6572000000000000000000000081525060200191505060405180910390fd5b84600160008863ffffffff1663ffffffff16815260200190815260200160002060020160146101000a81548163ffffffff021916908363ffffffff16021790555083600160008863ffffffff1663ffffffff16815260200190815260200160002060020160186101000a81548163ffffffff021916908363ffffffff16021790555082600160008863ffffffff1663ffffffff168152602001908152602001600020600201601c6101000a81548163ffffffff021916908363ffffffff16021790555042600160008863ffffffff1663ffffffff16815260200190815260200160002060030160006101000a81548163ffffffff021916908363ffffffff160217905550600460008763ffffffff1663ffffffff16815260200190815260200160002085908060018154018082558091505090600182039060005260206000209060089182820401919006600402909192909190916101000a81548163ffffffff021916908363ffffffff160217905550507fa1bf2160eb6a55e409a0b6badd5a56b6f7b00205cdbece72398cbe57603ffebd86604051808263ffffffff1663ffffffff16815260200191505060405180910390a184915050949350505050565b6006602052816000526040600020818154811015156129d357fe5b9060005260206000209060089182820401919006600402915091509054906101000a900463ffffffff1681565b6060806000600360008563ffffffff1663ffffffff168152602001908152602001600020600001600360008663ffffffff1663ffffffff168152602001908152602001600020600101600360008763ffffffff1663ffffffff16815260200190815260200160002060020160009054906101000a900473ffffffffffffffffffffffffffffffffffffffff16828054600181600116156101000203166002900480601f016020809104026020016040519081016040528092919081815260200182805460018160011615610100020316600290048015612b215780601f10612af657610100808354040283529160200191612b21565b820191906000526020600020905b815481529060010190602001808311612b0457829003601f168201915b50505050509250818054600181600116156101000203166002900480601f016020809104026020016040519081016040528092919081815260200182805460018160011615610100020316600290048015612bbd5780601f10612b9257610100808354040283529160200191612bbd565b820191906000526020600020905b815481529060010190602001808311612ba057829003601f168201915b505050505091509250925092509193909250565b60606000600c9054906101000a900473ffffffffffffffffffffffffffffffffffffffff1673ffffffffffffffffffffffffffffffffffffffff163373ffffffffffffffffffffffffffffffffffffffff16141515612c98576040517f08c379a00000000000000000000000000000000000000000000000000000000081526004018080602001828103825260158152602001807f596f7520617265206e6f74207468652061646d696e000000000000000000000081525060200191505060405180910390fd5b600660008363ffffffff1663ffffffff168152602001908152602001600020805480602002602001604051908101604052809291908181526020018280548015612d2d57602002820191906000526020600020906000905b82829054906101000a900463ffffffff1663ffffffff1681526020019060040190602082600301049283019260010382029150808411612cf05790505b50505050509050919050565b600560205281600052604060002081815481101515612d5457fe5b9060005260206000209060089182820401919006600402915091509054906101000a900463ffffffff1681565b600060049054906101000a900463ffffffff1681565b600060089054906101000a900463ffffffff1681565b6000806000600881819054906101000a900463ffffffff168092919060010191906101000a81548163ffffffff021916908363ffffffff160217905550905085600160008363ffffffff1663ffffffff1681526020019081526020016000206000019080519060200190612e229291906147d4565b5084600160008363ffffffff1663ffffffff1681526020019081526020016000206001019080519060200190612e599291906147d4565b50600360008963ffffffff1663ffffffff16815260200190815260200160002060020160009054906101000a900473ffffffffffffffffffffffffffffffffffffffff16600160008363ffffffff1663ffffffff16815260200190815260200160002060020160006101000a81548173ffffffffffffffffffffffffffffffffffffffff021916908373ffffffffffffffffffffffffffffffffffffffff16021790555086600160008363ffffffff1663ffffffff16815260200190815260200160002060020160146101000a81548163ffffffff021916908363ffffffff16021790555083600160008363ffffffff1663ffffffff16815260200190815260200160002060020160186101000a81548163ffffffff021916908363ffffffff16021790555082600160008363ffffffff1663ffffffff168152602001908152602001600020600201601c6101000a81548163ffffffff021916908363ffffffff16021790555042600160008363ffffffff1663ffffffff16815260200190815260200160002060030160006101000a81548163ffffffff021916908363ffffffff16021790555062278d00600160008363ffffffff1663ffffffff16815260200190815260200160002060030160009054906101000a900463ffffffff1601600160008363ffffffff1663ffffffff16815260200190815260200160002060030160046101000a81548163ffffffff021916908363ffffffff160217905550600660008963ffffffff1663ffffffff16815260200190815260200160002081908060018154018082558091505090600182039060005260206000209060089182820401919006600402909192909190916101000a81548163ffffffff021916908363ffffffff16021790555050600560008263ffffffff1663ffffffff16815260200190815260200160002088908060018154018082558091505090600182039060005260206000209060089182820401919006600402909192909190916101000a81548163ffffffff021916908363ffffffff16021790555050600460008263ffffffff1663ffffffff16815260200190815260200160002087908060018154018082558091505090600182039060005260206000209060089182820401919006600402909192909190916101000a81548163ffffffff021916908363ffffffff16021790555050809150509695505050505050565b6000836000600160008363ffffffff1663ffffffff16815260200190815260200160002060020160149054906101000a900463ffffffff1663ffffffff1614151515613285576040517f08c379a00000000000000000000000000000000000000000000000000000000081526004018080602001828103825260098152602001807f4e6f2074656e616e74000000000000000000000000000000000000000000000081525060200191505060405180910390fd5b84600160008263ffffffff1663ffffffff16815260200190815260200160002060020160009054906101000a900473ffffffffffffffffffffffffffffffffffffffff1673ffffffffffffffffffffffffffffffffffffffff163373ffffffffffffffffffffffffffffffffffffffff1614151561336b576040517f08c379a00000000000000000000000000000000000000000000000000000000081526004018080602001828103825260158152602001807f596f7520617265206e6f7420746865206f776e6572000000000000000000000081525060200191505060405180910390fd5b84600160008863ffffffff1663ffffffff16815260200190815260200160002060020160186101000a81548163ffffffff021916908363ffffffff16021790555083600160008863ffffffff1663ffffffff168152602001908152602001600020600201601c8282829054906101000a900463ffffffff160192506101000a81548163ffffffff021916908363ffffffff160217905550600160008763ffffffff1663ffffffff16815260200190815260200160002060020160149054906101000a900463ffffffff16925050509392505050565b6000836000600160008363ffffffff1663ffffffff16815260200190815260200160002060020160149054906101000a900463ffffffff1663ffffffff16141515156134f4576040517f08c379a00000000000000000000000000000000000000000000000000000000081526004018080602001828103825260098152602001807f4e6f2074656e616e74000000000000000000000000000000000000000000000081525060200191505060405180910390fd5b8484600160008363ffffffff1663ffffffff16815260200190815260200160002060020160149054906101000a900463ffffffff1663ffffffff168163ffffffff161415156135ab576040517f08c379a00000000000000000000000000000000000000000000000000000000081526004018080602001828103825260168152602001807f596f7520617265206e6f74207468652074656e616e740000000000000000000081525060200191505060405180910390fd5b600160008863ffffffff1663ffffffff16815260200190815260200160002060020160189054906101000a900463ffffffff1663ffffffff168563ffffffff16141515613660576040517f08c379a00000000000000000000000000000000000000000000000000000000081526004018080602001828103825260188152602001807f496e636f7272656374207061796d656e7420616d6f756e74000000000000000081525060200191505060405180910390fd5b600160008863ffffffff1663ffffffff16815260200190815260200160002060030160049054906101000a900463ffffffff1663ffffffff164211151515613736576040517f08c379a000000000000000000000000000000000000000000000000000000000815260040180806020018281038252602a8152602001807f52656e7420697320616c7265616479207061696420666f72207468652063757281526020017f72656e74206d6f6e74680000000000000000000000000000000000000000000081525060400191505060405180910390fd5b62278d00600160008963ffffffff1663ffffffff16815260200190815260200160002060030160048282829054906101000a900463ffffffff160192506101000a81548163ffffffff021916908363ffffffff1602179055507fa72cb0a70447925079adbd87f0c2b105bb3258e3e13c4e6e4dff8ab72f1f47598786604051808363ffffffff1663ffffffff1681526020018263ffffffff1663ffffffff1681526020019250505060405180910390a1600193505050509392505050565b6000816000600160008363ffffffff1663ffffffff16815260200190815260200160002060020160149054906101000a900463ffffffff1663ffffffff16141515156138a8576040517f08c379a00000000000000000000000000000000000000000000000000000000081526004018080602001828103825260098152602001807f4e6f2074656e616e74000000000000000000000000000000000000000000000081525060200191505060405180910390fd5b82600160008263ffffffff1663ffffffff16815260200190815260200160002060020160009054906101000a900473ffffffffffffffffffffffffffffffffffffffff1673ffffffffffffffffffffffffffffffffffffffff163373ffffffffffffffffffffffffffffffffffffffff1614151561398e576040517f08c379a00000000000000000000000000000000000000000000000000000000081526004018080602001828103825260158152602001807f596f7520617265206e6f7420746865206f776e6572000000000000000000000081525060200191505060405180910390fd5b600160008563ffffffff1663ffffffff16815260200190815260200160002060030160049054906101000a900463ffffffff1663ffffffff1642101592505050919050565b60008060008081819054906101000a900463ffffffff168092919060010191906101000a81548163ffffffff021916908363ffffffff160217905550905085600260008363ffffffff1663ffffffff1681526020019081526020016000206000019080519060200190613a479291906147d4565b5084600260008363ffffffff1663ffffffff1681526020019081526020016000206001019080519060200190613a7e9291906147d4565b5083600260008363ffffffff1663ffffffff1681526020019081526020016000206002019080519060200190613ab59291906147d4565b5082600260008363ffffffff1663ffffffff16815260200190815260200160002060030160006101000a81548173ffffffffffffffffffffffffffffffffffffffff021916908373ffffffffffffffffffffffffffffffffffffffff16021790555080915050949350505050565b600060608060606000856000600160008363ffffffff1663ffffffff16815260200190815260200160002060020160149054906101000a900463ffffffff1663ffffffff1614151515613bde576040517f08c379a00000000000000000000000000000000000000000000000000000000081526004018080602001828103825260098152602001807f4e6f2074656e616e74000000000000000000000000000000000000000000000081525060200191505060405180910390fd5b86600160008263ffffffff1663ffffffff16815260200190815260200160002060020160009054906101000a900473ffffffffffffffffffffffffffffffffffffffff1673ffffffffffffffffffffffffffffffffffffffff163373ffffffffffffffffffffffffffffffffffffffff16141515613cc4576040517f08c379a00000000000000000000000000000000000000000000000000000000081526004018080602001828103825260158152602001807f596f7520617265206e6f7420746865206f776e6572000000000000000000000081525060200191505060405180910390fd5b6000600160008a63ffffffff1663ffffffff16815260200190815260200160002060020160149054906101000a900463ffffffff16905080600260008363ffffffff1663ffffffff168152602001908152602001600020600001600260008463ffffffff1663ffffffff168152602001908152602001600020600101600260008563ffffffff1663ffffffff168152602001908152602001600020600201600260008663ffffffff1663ffffffff16815260200190815260200160002060030160009054906101000a900473ffffffffffffffffffffffffffffffffffffffff16838054600181600116156101000203166002900480601f016020809104026020016040519081016040528092919081815260200182805460018160011615610100020316600290048015613e3a5780601f10613e0f57610100808354040283529160200191613e3a565b820191906000526020600020905b815481529060010190602001808311613e1d57829003601f168201915b50505050509350828054600181600116156101000203166002900480601f016020809104026020016040519081016040528092919081815260200182805460018160011615610100020316600290048015613ed65780601f10613eab57610100808354040283529160200191613ed6565b820191906000526020600020905b815481529060010190602001808311613eb957829003601f168201915b50505050509250818054600181600116156101000203166002900480601f016020809104026020016040519081016040528092919081815260200182805460018160011615610100020316600290048015613f725780601f10613f4757610100808354040283529160200191613f72565b820191906000526020600020905b815481529060010190602001808311613f5557829003601f168201915b505050505091509750975097509750975050505091939590929450565b6000809054906101000a900463ffffffff1681565b60606000600c9054906101000a900473ffffffffffffffffffffffffffffffffffffffff1673ffffffffffffffffffffffffffffffffffffffff163373ffffffffffffffffffffffffffffffffffffffff1614151561406b576040517f08c379a00000000000000000000000000000000000000000000000000000000081526004018080602001828103825260158152602001807f596f7520617265206e6f74207468652061646d696e000000000000000000000081525060200191505060405180910390fd5b600560008363ffffffff1663ffffffff16815260200190815260200160002080548060200260200160405190810160405280929190818152602001828054801561410057602002820191906000526020600020906000905b82829054906101000a900463ffffffff1663ffffffff16815260200190600401906020826003010492830192600103820291508084116140c35790505b50505050509050919050565b60046020528160005260406000208181548110151561412757fe5b9060005260206000209060089182820401919006600402915091509054906101000a900463ffffffff1681565b60608060008060008060008061416861488c565b600160008b63ffffffff1663ffffffff1681526020019081526020016000206101006040519081016040529081600082018054600181600116156101000203166002900480601f01602080910402602001604051908101604052809291908181526020018280546001816001161561010002031660029004801561422d5780601f106142025761010080835404028352916020019161422d565b820191906000526020600020905b81548152906001019060200180831161421057829003601f168201915b50505050508152602001600182018054600181600116156101000203166002900480601f0160208091040260200160405190810160405280929190818152602001828054600181600116156101000203166002900480156142cf5780601f106142a4576101008083540402835291602001916142cf565b820191906000526020600020905b8154815290600101906020018083116142b257829003601f168201915b505050505081526020016002820160009054906101000a900473ffffffffffffffffffffffffffffffffffffffff1673ffffffffffffffffffffffffffffffffffffffff1673ffffffffffffffffffffffffffffffffffffffff1681526020016002820160149054906101000a900463ffffffff1663ffffffff1663ffffffff1681526020016002820160189054906101000a900463ffffffff1663ffffffff1663ffffffff16815260200160028201601c9054906101000a900463ffffffff1663ffffffff1663ffffffff1681526020016003820160009054906101000a900463ffffffff1663ffffffff1663ffffffff1681526020016003820160049054906101000a900463ffffffff1663ffffffff1663ffffffff16815250509050806000015181602001518260400151836060015184608001518560a001518660c001518760e001518797508696509850985098509850985098509850985050919395975091939597565b60606000600c9054906101000a900473ffffffffffffffffffffffffffffffffffffffff1673ffffffffffffffffffffffffffffffffffffffff163373ffffffffffffffffffffffffffffffffffffffff161415156144ff576040517f08c379a00000000000000000000000000000000000000000000000000000000081526004018080602001828103825260158152602001807f596f7520617265206e6f74207468652061646d696e000000000000000000000081525060200191505060405180910390fd5b600460008363ffffffff1663ffffffff16815260200190815260200160002080548060200260200160405190810160405280929190818152602001828054801561459457602002820191906000526020600020906000905b82829054906101000a900463ffffffff1663ffffffff16815260200190600401906020826003010492830192600103820291508084116145575790505b50505050509050919050565b60006060600660008563ffffffff1663ffffffff16815260200190815260200160002080548060200260200160405190810160405280929190818152602001828054801561463957602002820191906000526020600020906000905b82829054906101000a900463ffffffff1663ffffffff16815260200190600401906020826003010492830192600103820291508084116145fc5790505b50505050509050600081519050600080905060008090505b828110156147c6578563ffffffff16848281518110151561466e57fe5b9060200190602002015163ffffffff1614156147b95780915060006001820190505b8381101561475957600660008963ffffffff1663ffffffff168152602001908152602001600020818154811015156146c457fe5b90600052602060002090600891828204019190066004029054906101000a900463ffffffff16600660008a63ffffffff1663ffffffff1681526020019081526020016000206001830381548110151561471957fe5b90600052602060002090600891828204019190066004026101000a81548163ffffffff021916908363ffffffff1602179055508080600101915050614690565b50600660008863ffffffff1663ffffffff168152602001908152602001600020805480151561478457fe5b60019003818190600052602060002090600891828204019190066004026101000a81549063ffffffff021916905590556147c6565b8080600101915050614651565b506000935050505092915050565b828054600181600116156101000203166002900490600052602060002090601f016020900481019282601f1061481557805160ff1916838001178555614843565b82800160010185558215614843579182015b82811115614842578251825591602001919060010190614827565b5b5090506148509190614906565b5090565b6060604051908101604052806060815260200160608152602001600073ffffffffffffffffffffffffffffffffffffffff1681525090565b610100604051908101604052806060815260200160608152602001600073ffffffffffffffffffffffffffffffffffffffff168152602001600063ffffffff168152602001600063ffffffff168152602001600063ffffffff168152602001600063ffffffff168152602001600063ffffffff1681525090565b61492891905b8082111561492457600081600090555060010161490c565b5090565b9056fea165627a7a72305820080759b6f0884f2eae1e03e246ed45044a020b08f50cf521fbcfcb19dff46b130029",
  "source": "// SPDX-License-Identifier: MIT\r\npragma solidity >=0.4.22 <0.9.0;\r\n\r\nimport \"./DataModel.sol\";\r\nimport \"./GetSet.sol\";\r\n\r\ncontract Rental is DataModel, GetSet{\r\n    \r\n    modifier onlyAdmin() {\r\n        require(msg.sender == admin, \"You are not the admin\");\r\n         _;\r\n    }\r\n    modifier onlyOwner(uint32 _houseId) {\r\n         require(msg.sender == houses[_houseId].ownerAddress, \"You are not the owner\");\r\n         _;\r\n    }\r\n    modifier onlyTenant(uint32 _houseId, uint32 _tenantId) {\r\n         require(_tenantId == houses[_houseId].tenantId, \"You are not the tenant\");\r\n         _;\r\n    }\r\n    modifier isRented(uint32 _houseId) {\r\n        require(houses[_houseId].tenantId != 0, \"No tenant\");\r\n        _;\r\n    }\r\n   \r\n\r\n    function deleteHouse(uint32 _ownerId, uint32 _houseId) internal returns(uint32 ) {\r\n        uint32[] memory houses = trackOwnedHouses[_ownerId];\r\n        uint256 l = houses.length;\r\n        uint256 index = 0;\r\n        for (uint256 i = 0; i < l; i++) {\r\n            if (houses[i] == _houseId) {\r\n                index = i;\r\n                for (uint256 j = i+1; j < l; j++) {\r\n                    trackOwnedHouses[_ownerId][j-1] = trackOwnedHouses[_ownerId][j];\r\n                }\r\n                trackOwnedHouses[_ownerId].pop();\r\n                break;\r\n            }\r\n        }\r\n        return 0;\r\n    }\r\n\r\n    //Transfer \r\n    function newOwner(uint32 _oldOwnerId, uint32 _newOwnerId, uint32 _houseId) onlyOwner(_houseId) public returns (uint32) {\r\n        deleteHouse(_oldOwnerId, _houseId);\r\n        owner memory o2 = owners[_newOwnerId]; \r\n        houses[_houseId].ownerAddress = o2.ownerAddress;\r\n        houses[_houseId].tenantId = 0;\r\n        houses[_houseId].rent = 0;\r\n        houses[_houseId].tenancy = 0; \r\n\r\n        trackOwnedHouses[_newOwnerId].push(_houseId);\r\n        trackHouseOwners[_houseId].push(_newOwnerId);\r\n        trackHouseTenants[_houseId].push(0);\r\n        emit transferOwner(_houseId);\r\n        return _newOwnerId;\r\n    }\r\n\r\n    function newTenant(uint32 _houseId, uint32 _newTenantId, uint32 _rent, uint32 _tenancy) onlyOwner(_houseId) public returns (uint32) {\r\n        houses[_houseId].tenantId = _newTenantId;\r\n        houses[_houseId].rent = _rent;\r\n        houses[_houseId].tenancy = _tenancy;\r\n        houses[_houseId].startDate = uint32(block.timestamp);\r\n\r\n        trackHouseTenants[_houseId].push(_newTenantId);\r\n        emit tranferTenant(_houseId);\r\n        return _newTenantId;\r\n    }\r\n\r\n    //View\r\n    function viewTenantDetails(uint32 _houseId) isRented(_houseId) onlyOwner(_houseId) public view returns(uint32, string memory, string memory, string memory, address) {\r\n        uint32 Id = houses[_houseId].tenantId;\r\n        return (Id, \r\n        tenants[Id].tenantName, \r\n        tenants[Id].bcId,\r\n        tenants[Id].phoneNumber,\r\n        tenants[Id].tenantAddress);\r\n    }\r\n\r\n    //Modify\r\n    function modifyTenant(uint32 _houseId, uint32 _rent, uint32 _tenancy) isRented(_houseId) onlyOwner(_houseId) public returns(uint32) {\r\n        houses[_houseId].rent = _rent;\r\n        houses[_houseId].tenancy += _tenancy;\r\n        return houses[_houseId].tenantId;\r\n    }\r\n\r\n    //PayRent\r\n    function payRent(uint32 _houseId,uint32 _tenantId, uint32 _rent) isRented(_houseId) onlyTenant(_houseId, _tenantId) public returns (bool) {\r\n        require(_rent == houses[_houseId].rent, \"Incorrect payment amount\");\r\n        require(block.timestamp <= houses[_houseId].nextPaymentDate, \"Rent is already paid for the current month\");\r\n        houses[_houseId].nextPaymentDate += 30 days;\r\n        emit paymentReceived(_houseId, _rent);\r\n        return true;\r\n    }\r\n\r\n    //Check rent due\r\n    function checkRentDue(uint32 _houseId) isRented(_houseId) onlyOwner(_houseId) public view returns(bool) {\r\n        return block.timestamp >= houses[_houseId].nextPaymentDate;\r\n    }\r\n \r\n    //Tracking\r\n    function OwnedHouses(uint32 _ownerId) onlyAdmin() public view returns(uint32[] memory) {\r\n        return trackOwnedHouses[_ownerId];\r\n    }\r\n    function houseOwners(uint32 _houseId) onlyAdmin() public view returns (uint32[] memory) {\r\n       return trackHouseOwners[_houseId];\r\n    }\r\n    function houseTenants(uint32 _houseId) onlyAdmin() public view returns (uint32[] memory) {\r\n       return trackHouseTenants[_houseId];\r\n    }\r\n}\r\n",
  "sourcePath": "D:\\Blockchain\\rentalApp\\contracts\\Rental.sol",
  "compiler": {
    "name": "solc",
    "version": "0.5.1+commit.c8a2cb62.Emscripten.clang"
  },
  "schemaVersion": "3.4.16",
  "updatedAt": "2024-05-04T15:03:36.813Z",
  "networkType": "ethereum",
  "devdoc": {
    "methods": {}
  },
  "userdoc": {
    "methods": {}
  }
}